:020000040000fa
:020000040040ba
:10000000f0ff4520951240009f3240001737400016
:10001000033a4000eb3a4000573b4000000000002c
:100020000000000000000000000000000138400057
:100030004b39400000000000312d4000a535400044
:10004000cf304000cf304000cf304000cf304000b4
:10005000cf304000cf304000cf304000cf304000a4
:10006000cf30400000000000cf304000cf304000d3
:10007000cf304000cf30400019114000cf30400059
:10008000cf304000cf304000cf304000cf30400074
:10009000cf304000cf304000cf304000cf30400064
:1000a000cf304000cf304000cf304000cf30400054
:1000b000cf304000cf304000cf304000cf30400044
:1000c000cf304000cf304000cf304000cf30400034
:1000d000cf304000c1054000cf304000cf3040005d
:1000e000cf304000cf304000cf304000cf30400014
:1000f000cf304000cf304000cf304000cf30400004
:10010000cf304000cf304000cf304000cf304000f3
:10011000cf304000cf304000000000000000000061
:10012000cf304000cf304000cf304000cf304000d3
:10013000cf304000cf304000cf304000cf304000c3
:10014000cf304000cf304000cf304000cf304000b3
:10015000cf304000cf304000cf304000cf304000a3
:08016000cf304000cf30400019
:020000040000fa
:020000040040ba
:10016800f8b500bff8bc08bc9e467047c5324000d1
:10017800f8b500bff8bc08bc9e467047a1324000e5
:020000040000fa
:020000040040ba
:08018800e80a0000010000007c
:020000040000fa
:020000040040ba
:1001900038a440201c0000000000000018a44020eb
:1001a0002000000000000000f0a340202800000014
:1001b00000000000b4a340203c000000000000004c
:1001c0003da54020010000000000000040a14020ab
:1001d0008000000000000000c0a14020800000005e
:1001e00000000000f4a240204000000000000000d9
:1001f000b8a440200400000000000000bca440207f
:100200000400000000000000c0a440200400000022
:1002100001000000aaaaaaaac4a440200400000069
:10022000000000000000402000a0000000000000ce
:10023000c8a440200400000000000000cca440201e
:100240000400000000000000d0a4402004000000d2
:1002500000000000d4a440200400000000000000c2
:1002600040a240206400000000000000d8a440200c
:100270000400000000000000dca440200400000096
:1002800000000000e0a44020040000000000000086
:10029000e4a440200400000000000000e8a4402086
:1002a000040000000000000054a4402014000000de
:1002b0000000000068a440201400000000000000be
:1002c000eca440200400000000000000f0a4402046
:1002d0000400000000000000f4a44020040000001e
:1002e00000000000f8a4402004000000000000000e
:1002f0007ca440201400000000000000fca440206a
:10030000040000000000000090a440201400000041
:1003100000000000a4a44020140000000000000021
:1003200000a54020040000000000000004a54020bb
:10033000040000000000000008a5402004000000a8
:100340000000000041a54020010000000000000066
:100350000ca54020040000000000000034a3402051
:10036000400000000000000042a540200100000005
:100370000000000074a340204000000000000000c6
:1003800010a54020040000000000000043a540200c
:10039000010000000000000040a540200100000016
:1003a000000000003ea54020020000000000000008
:1003b00014a54020040000000000000018a5402003
:1003c00004000000000000001ca540200400000004
:1003d0000000000000a040204001000001000000db
:1003e000000000000000000000000000000000000d
:1003f00000000000000000000000000000000000fd
:1004000000000000000000000000000000000000ec
:1004100000000000000000000000000000000000dc
:1004200000000000000000000000000000000000cc
:1004300000000000000000000000000000000000bc
:1004400000000000000000000000000000000000ac
:10045000000000000000000000000000000000009c
:10046000000000000000000000000000000000008c
:10047000000000000000000000000000000000007c
:10048000000000000000000000000000000000006c
:10049000000000000000000000000000000000005c
:1004a000000000000000000000000000000000004c
:1004b000000000000000000000000000000000003c
:1004c000000000000000000000000000000000002c
:1004d000000000000000000000000000000000001c
:1004e000000000000000000000000000000000000c
:1004f00000000000000000000000000000000000fc
:1005000000000000000000000000000000000000eb
:1005100000000000000000000000000000000000db
:1005200020a54020040000000000000044a5402059
:1005300001000000010000000500000024a540208b
:10054000040000000000000028a540200400000076
:10055000000000003ca54020010000000000000059
:100560002ca54020040000000000000045a540200c
:1005700001000000010000002000000030a5402024
:100580000400000000000000a4a240205000000071
:100590000000000034a5402004000000000000001e
:1005a00038a540200400000000000000000000000a
:1005b00000000000222222222222222222222222a3
:020000040000fa
:020000040040ba
:1005c0002de9f04f83b0a94b1d6d15f0007f02d0cf
:1005d0004ff000721a6515f0010f62d0a34b012293
:1005e0001a655a6d22f001025a65d3f8a43013f04f
:1005f0007f0f56d09d4bd3f8a440c4f3052404ebe1
:10060000c403db009a4ad268d718d15811f0804f42
:10061000d15804eb8400974e56f8200014bf21f007
:100620006041c1f38a410160d35813f0005f0cd0e0
:100630007b6813f4001f08d104eb84038d4a02eb9e
:1006400083031b6901221a7007e004eb8403894ac3
:1006500002eb83031b6900221a707868c0f3034021
:1006600003f0a8f88246dff80c824fea840909eb10
:10067000040608eb8606024607f10801706803f0dd
:10068000b5f9b36883f800a0f3680bb17a681a80f3
:10069000764bc3f8a840784b1b6813b1764a506874
:1006a000984715f0100f69d0704b10221a655a6ddb
:1006b00022f010025a65d3f8b43013f07f0f5dd0ea
:1006c0006a4bd3f8b440c4f3052404ebc403db0045
:1006d000674a1269d718d15811f0804fd05804f1e9
:1006e000010101eb8101634e56f8216014bf20f037
:1006f0006040c0f38a403060d35813f0005f0cd0e4
:100700007b6813f4001f08d104eb8403594a02eb01
:1007100083035b6a01221a7007e004eb8403554ae5
:1007200002eb83035b6a00221a707868c0f303400f
:1007300003f040f880464f4e631c03eb830306eb47
:100740008303024607f10801586803f04ff9a3003c
:100750001a1906eb8202d26982f80080234406eb64
:100760008306336a0bb17a681a80404bc3f8b840ed
:10077000414b9b6813b1404ad068984715f4002f4d
:1007800000f0b180394b4ff400221a655a6d22f403
:1007900000225a65d3f89830abb9344bd3f89c306b
:1007a00013f0010f25d10123304e1846dcb2d6f8e4
:1007b0009c1000fa03f28a431cd00134e4b20133e6
:1007c000202bf3d118e0294bd3f8983013f0010f08
:1007d00043d10123254e1846dcb2d6f8981000fa12
:1007e00003f28a4308d00134e4b20133202bf3d161
:1007f00002e000242034e4b201941d4904ebc40358
:10080000db004a6902eb030a496811f0010f26d1a7
:100810000126d15811f0804fd1584fea860000ebe5
:100820000607144800eb8700806a14bf21f060417e
:10083000c1f38a410160d35813f0005f1ed0daf88b
:10084000043013f4001f19d1b3009a19094b03ebbc
:1008500082039b6b01221a7018e00024cce721f080
:100860000101034841600026d3e700bf0040034078
:10087000f0a34020b4a3402018a44020b3009a194c
:100880003b4b03eb82039b6b00221a70daf80400e7
:10089000c0f3034002f08eff8346354f4fea8608cf
:1008a00008eb060907eb890902460af10801d9f8a5
:1008b0002c0003f09bf8d9f8303083f800b0d9f859
:1008c000343013b1daf804201a801f2c46d80123e3
:1008d000019a9340274ac2f89830274b1b6913b1fd
:1008e000254a5069984715f4007f1fd0214b4ff4db
:1008f00000721a655a6d22f400725a65d3f8d83026
:1009000013f0010f0cd01b4bd3f8e03013f0010fa4
:1009100006d0184ad2f8e03023f00103c2f8e030e4
:10092000154b9b6913b1144ad069984715f4006fb1
:1009300011d0104a4ff400631365d2f8c430c3f3ea
:100940000423d2f8c420c2f30442934203d20133f9
:10095000dbb29a42fbd103b0bde8f08f019b203b94
:10096000012202fa03f3034ac2f89c30b5e700bf44
:0c097000b4a340200040034018a4402025
:020000040000fa
:020000040040ba
:10097c002de9f04fadb00027dff8e4a20391064655
:10098c001546b8464ff0ff3903990b78002b00f051
:10099c00f9800cabcde907890a938023cdf824802c
:1009ac000b9300240b5d0bb1252b26d134b12246c1
:1009bc00304602f0e6fe039b23440393039b1a7814
:1009cc00252a40f0d78003f1010bcdf80cb0039829
:1009dc0003782b2b1ad025d8202b1bd0232b1dd0e2
:1009ec002a2b27d002f032fc0990039b1a78303a5c
:1009fc00092a2ed801330393f7e70134d2e7079b7a
:100a0c0043f00103013007930390e0e7079b43f0a9
:100a1c000403f7e7079b43f00803f3e7079b43f056
:100a2c001003efe72d2bead0302bd9d1079b43f0e5
:100a3c000203e7e72b681a1d1b682a600130002ba4
:100a4c000390099305da079a5b4282f00102079240
:100a5c000993079bda0744bf23f002030793039b18
:100a6c001a782e2a0dd1581ccdf8208003905a7874
:100a7c002a2a25d1023303932b681a1d1b682a607e
:100a8c00089303a802f0bafc039b0190187803f0ba
:100a9c0018f86928019979d032dc632800f0c680f7
:100aac0019dc252800f0d080612853d025238df83f
:100abc001030cdf80cb0cdf81c80cde90898c0e012
:100acc0002f0c4fb0890039b1a78303a092ad8d854
:100adc0001330393f7e7642858d06728e6dc2a46ed
:100aec0004a802f0fdfd002800f09c80039b5a1c1a
:100afc0003921b7804aa07a9304602f079fe38e06d
:100b0c00702873d015dc6e2800f087806f28cdd14b
:100b1c002b46002204a801f057fc002800f082802c
:100b2c00039b04aa013307a93046039302f01df876
:100b3c001fe075283ad0782848d07328b6d1802980
:100b4c0070d1039b2a6801330393131d2b60126829
:100b5c0000235be02a4604a802f0c2fd002861d005
:100b6c00039b5a1c03921b7804aa07a9304602f077
:100b7c003ffe04443c44a7426edd384b4f221a60c2
:100b8c004ff0ff3738462db0bde8f08f2b460122d1
:100b9c0004a801f019fc002844d0039b04aa0133db
:100bac0007a93046039301f017fbe2e72b4600221e
:100bbc0004a801f009fc002834d0039b04aa0133db
:100bcc0007a93046039302f051fad2e72b460022d4
:100bdc0004a801f0f9fb28b3039b5a1c03921b7861
:100bec0004aa07a9304600f0dffdc2e72b4600221d
:100bfc00f02104a801f0e8fba0b1039b013303939f
:100c0c00dde90423134306d10023524607a93046dd
:100c1c0002f000faade77823e2e72b463a1904a874
:100c2c0001f078fe039b01330393a3e78029f9d1ec
:100c3c00039b013303932b681a1d1b682a608df8e4
:100c4c001030012304aae1e78029ebd1039b8df836
:100c5c00100001330393f4e7274695e638a54020ae
:040c6c000e394000fd
:020000040000fa
:020000040040ba
:100c70002de9f047089e04468846002b40f0858009
:100c80008a42154648d9b2fa82f24ab1c2f1200727
:100c900001fa02f320fa07f7954047ea0308944067
:100ca0004fea154e230cb8fbfef71ffa85fc0efb2e
:100cb000178843ea084307fb0cf1994209d9eb185e
:100cc00007f1ff3080f0e380994240f2e080023f7c
:100cd0002b445b1aa4b2b3fbfef00efb103344eac4
:100ce000034400fb0cfca44509d92c1900f1ff3387
:100cf00080f0cb80a44540f2c88002382c4440ea02
:100d00000740a4eb0c0400271eb1d4400023c6e921
:100d100000433946bde8f087002a53d0b2fa82f288
:100d2000002a40f0b680491b4fea154e1ffa85f89d
:100d30000127b1fbfefc230c0efb1c1143ea01430f
:100d400008fb0cf1994207d9eb180cf1ff3002d2e5
:100d5000994200f2ec808446591aa3b2b1fbfef02e
:100d60000efb101443ea044408fb00f8a04507d921
:100d70002c1900f1ff3302d2a04500f2dc801846a6
:100d8000a4eb080440ea0c40bee78b4208d9002ed1
:100d900078d00027c6e9000138463946bde8f0871b
:100da000b3fa83f77fb98b4202d3824200f2bd804f
:100db000841a61eb030301209846002ea9d0c6e9ee
:100dc0000048a6e7ffdec7f12005bb4022fa05fc7c
:100dd0004cea030c01fa07f420fa05f821fa05f3ae
:100de0004fea1c4e48ea0404b3fbfef9210c0efb4b
:100df00019331ffa8cf841ea034309fb08fa9a45b4
:100e000002fa07f200fa07f10bd91ceb030309f110
:100e1000ff3080f088809a4540f28580a9f1020970
:100e20006344a3eb0a03a4b2b3fbfef00efb103342
:100e300044ea034400fb08f8a04508d91ceb04046d
:100e400000f1ff336bd2a04569d90238644440ea0f
:100e50000940a4eb0804a0fb02894c45c6464b465a
:100e600054d351d0002e69d0b1eb0e0264eb0304d1
:100e700004fa05f522fa07f3fc401d43c6e90054c5
:100e8000002746e73746304643e7184637e7074628
:100e90001fe7c2f1200320fa03f7954001fa02f0a0
:100ea00021fa03f34fea154e3843010cb3fbfef76a
:100eb0001ffa85f80efb173341ea034107fb08f3dd
:100ec0008b4204fa02f407d9691807f1ff3c28d2d3
:100ed0008b4226d9023f2944cb1a81b2b3fbfef0e4
:100ee0000efb103341ea034100fb08f38b4207d9a4
:100ef000691800f1ff3c10d28b420ed90238294408
:100f0000c91a40ea074714e74145abd2b8eb020ed5
:100f100069eb0c0201381346a4e76046f0e7184677
:100f200095e76746d8e781467be7384645e7acf169
:100f3000020c2b4410e702382c4421e73746e8e640
:020000040000fa
:020000040040ba
:100f40002de9f84f80460d4699469600304601f04f
:100f5000b1ff002800f0bb800746542001f0aaff33
:100f60000446002851d00763002d54d02b7880f818
:100f7000343053b12b4600f134010f3513f8012ff3
:100f800001f8012f0ab1ab42f8d1002384f84330b5
:100f90000a9b042b28bf04239a46e36263644ff044
:100fa000000bc4f848b0251d284602f0d1fd04f11d
:100fb000180002f0cdfd2461caf10503a36164624b
:100fc000c4f84cb084f850b0043e3e444a46414612
:100fd00026f0070002f05efb20600b9b03b11c6053
:100fe00002f020fc3e4a1368013313603d4b1b683e
:100ff000abb13d4b1b68bbb93a4b1b68da6ae36a7d
:101000009a4211d8374b1c600ee0384602f0a7fd1b
:101010004ff0ff305de0002380f83430b8e7314b0b
:101020001c601368012b28d0304a13680133136009
:10103000e06a2f4a1168012383400b43136000ebe1
:10104000800029462b4b03eb800002f0b9fc02f034
:10105000edfc254b1b68002b3dd0224b1b68da6a48
:10106000e36a9a4239d2244b4ff080521a60bff3a0
:101070004f8fbff36f8f01202be01e4e304602f0e2
:1010800094fc06f1140002f090fc06f1280002f036
:101090008cfc06f13c0002f088fc06f1500002f0e6
:1010a00084fc164f384602f080fc154e304602f0a4
:1010b0007cfc144802f079fc134802f076fc1348db
:1010c00002f073fc124b1f60124b1e60ace74ff036
:1010d000ff30bde8f88f0120fbe70120f9e700bff2
:1010e000d8a44020cca44020fca44020e4a440206c
:1010f000e8a4402040a2402004ed00e054a4402099
:1011000068a440207ca44020a4a4402090a44020b7
:08111000d0a44020d4a440202b
:020000040000fa
:020000040040ba
:10111800f8b55a4b5b6913f0e0030ad1574b5b698a
:1011280013f0010f20d1554b5b6913f0020f67d103
:10113800f8bddbb2524a82f83d30504b4ff4807212
:101148001a605b6913f0010f05d04c4b9a695a6914
:1011580012f0010ffad14a4b1b6a002bded0484a25
:10116800516a02209847d9e7444e454c46e0226a26
:10117800002a31d0616a38469047a36a0133226b4e
:10118800934228bf002327e0a16a3e48425430e03a
:1011980002f084fb236a002b30d094f83c2032b153
:1011a800a26b90422ad3616a0020984726e0a26b7e
:1011b800904223d1616a002098471fe0736913f0b9
:1011c800010fb0d0b569a36a0133226b934228bfdf
:1011d8000023e26a9a42cad0e26a9a42eed0c5f384
:1011e8000802716811f4003fced0a06a254921f8a1
:1011f8001020a36294f83430002bc9d10127dde711
:101208001e4d1f4c204e6b6913f0020f90d0e368ff
:10121800a26893422dd06a6812f4003f03f10102dc
:1012280014bf36f81330f35c2169914298bf00224d
:10123800e2606a6812f4003f14bfc3f30803dbb22c
:10124800eb61237d002bded002f0d8fb2368002b56
:10125800d9d0227f32b1a2699042d4d361680320e9
:101268009847d0e7a2699042cdd16168032098479a
:10127800c9e7024b0222da605ae700bf0080024049
:0c128800f4a2402040a14020c0a1402062
:020000040000fa
:020000040040ba
:1012940008b5504b9847504b9847eff3108172b6fe
:1012a4004e4ad2f8883043f47003c2f88830bff352
:1012b4004f8fbff36f8f01b962b6494b494a5a60e9
:1012c4009a6812f0010ffbd0454bdb6813f4c07f22
:1012d40013d0454b0c221a60414b444a5a609a6819
:1012e40012f0010ffbd03e4b414a5a609a6812f04b
:1012f400010ffbd03f4b404a1a60bff34f8fbff33f
:101304006f8f364cd4f8903223f00103c4f8903236
:10131400d4f8943223f00103c4f89432bff34f8f0e
:10132400bff36f8f01f07cf9344b23f07f03a3608c
:10133400334b984702f04af8636913f4003f12d123
:10134400bff34f8fbff36f8f0022c4f85022bff357
:101354004f8fbff36f8f626942f400326261bff353
:101364004f8fbff36f8f1d4b5b6913f4803f29d1ff
:101374001a4b0022c3f88420bff34f8fd3f8803078
:10138400c3f3c906c3f34e335a0143f6e075134859
:1013940002ea0504334644ea8371c0f86012013b53
:1013a400b3f1ff3ff7d1203a12f1200ff0d1bff390
:1013b4004f8f0a4a536943f480335361bff34f8f0d
:1013c400bff36f8f0f4b98470f4b984702f076fb94
:1013d400fee700bf5d3b40005d3b400000ed00e0e8
:1013e400000c0e400d00005ab8a440200c08005a0e
:1013f4000c07005a00180e40010000a50000400030
:0c1404006d2f40005d3b40005d3b400050
:020000040000fa
:020000040040ba
:101410002de9f04184b0044601914ff000084646a2
:101420004546504f49e0013ba36323684bb1236914
:101430005bb902f0fbfa4ff00108404604b0bde88a
:10144000f08102f04bfaa060f1e704f1100001f026
:10145000a5fa0028edd0434b4ff080521a60bff33d
:101460004f8fbff36f8fe4e702f0e0fa4ff0000810
:10147000e3e702a802f082fa29e084f8445032e05f
:1014800084f8455035e002f0cdf9a06800f056fe32
:10149000804602f0cbfa3ce0204601f047f900f02c
:1014a00045fc09e0204601f041f900f03ffc2046f0
:1014b00002f091fa002840d1012602f0b3f9a36ba3
:1014c000002bb0d1019b002bced0002ed1d002f04a
:1014d000adfa02f0d5fa02f0a5f994f844305bb207
:1014e000b3f1ff3fc9d094f845305bb2b3f1ff3f91
:1014f000c6d002f09bfa01a902a801f009fd00285c
:10150000d0d1204602f067fa0028c5d02368002b0e
:10151000b9d0019904f1240002f0d2f9204601f07b
:1015200005f900f003fc0028c6d14ff080533b6062
:10153000bff34f8fbff36f8fbee7b8f1000f3ff4db
:101540007caf02f06ff9616a19b1236b1968c1f1c0
:101550000501a06801f0aaf802f068fa4ff000084f
:081560006be700bf04ed00e0a1
:020000040000fa
:020000040040ba
:101568002de9f04784b00446884601921d464ff0a5
:1015780000094e46434f39e02a464146204601f0cd
:10158800bdfa636a73b938b13e4b4ff080521a60a6
:10159800bff34f8fbff36f8f02f044fa012004b0fe
:1015a800bde8f08704f1240001f0f4f90028f3d035
:1015b800344b4ff080521a60bff34f8fbff36f8fd9
:1015c800eae702f02ffa0020e9e702a802f0d2f9d0
:1015d8001ae084f8446023e084f8456026e0204659
:1015e80001f0a0f800f09efb4ff0010902f016f997
:1015f800a26be36b9a42bfd3022dbdd0019b002b97
:10160800dfd0b9f1000fe0d002f00cfa02f034faa2
:1016180002f004f994f844305bb2b3f1ff3fd8d03c
:1016280094f845305bb2b3f1ff3fd5d002f0faf938
:1016380001a902a801f068fce8b902f0eff8d4f8b3
:1016480038a0d4f83c9002f0edf9ca45c7d1019909
:1016580004f1100002f030f9204601f063f800f0c0
:1016680061fb0028c0d14ff080533b60bff34f8f20
:10167800bff36f8fb8e7204601f054f800f052fb33
:0816880000208ce704ed00e0f6
:020000040000fa
:020000040040ba
:101690004572726f7200000046696e207461726557
:1016a000612063616e20310046696e20746172654d
:1016b000612063616e2032004e7565766f206d6526
:1016c0006e73616a6520726563696269646f3a204e
:1016d0000000000020202020200000003078257825
:1016e000200000002000000020457869746f000091
:1016f0004572726f7220616c2072656369626972f3
:10170000206d656e73616a65000000004572726f3e
:101710007220616c20656e76696172206d656e73f2
:10172000616a65004e6f207365207075646f206379
:101730007265617220656c20626c6f7175656f20d7
:101740006d7574657832000054415245415f4361c4
:101750006e0000002020202020202020000000001b
:101760005465636c613a2025750000005441524570
:10177000415f43616e31000054415245415f436116
:101780006e3200004d657373616765205265636555
:101790007074696f6e204661696c656400000000ba
:1017a0004573706572616e646f207465636c612e41
:0417b0002e2e0000d9
:020000040000fa
:020000040040ba
:1017b4002de9f04f89461946d9e90153d9f800803b
:1017c400d9f80ca0002d8bb0a8bf28f002088346de
:1017d400b8bf012518f010009646d2e900670290c0
:1017e40051d056ea07024ed0981e18f0080403940c
:1017f400d9f8104018bf00f1ff30401b013c4ff0f6
:10180400000c049008f0020005900af804c0a1f14d
:1018140041000690012c0add56ea070235d1002d5d
:1018240033dc049a5019002801dd059a6abb029a38
:1018340062b1dee9006756ea070207d00aeb040248
:10184400023c02f8011c30220af80420039a1ab15f
:10185400013c20220af80420d9f81020cdf8008099
:10186400013a121b0aeb0401584600f09cffdbf816
:101874000430db0504d5d9f804309842b8bf1846c3
:101884000bb0bde8f08f1846afe706f00f00069adc
:101894000928d4bf30305730192a04f1ff340ed848
:1018a40040f0200cacf1610cbcf1190f07d8cde964
:1018b40008e1079302f010f9dde908e1079b0af853
:1018c4000400300940ea07704fea171c013d064640
:0418d40067469fe7dd
:020000040000fa
:020000040040ba
:1018d8002de9f04184b0374802f02ef9364b0193d8
:1018e8000523009300234ff4007234493448fff76e
:1018f80023fb344e06f58878334f13e0334b0193be
:101908000423009300234ff4007206f1dc013048f1
:10191800fff712fb01f082ff02f084f840f2dc507e
:1019280001f0a4fd02f0b0f8044620283ed002ad34
:1019380006f1c40393e8030085e80300224606f194
:10194800d001284601f0f0ff284601f06ffe312c47
:10195800d4d0322c18d0332cdcd14ff0ff3138687a
:10196800fff752fd1b4b0193022300931a4b1b4aae
:101978001b491c4801f0a8fb98b100231a461946d8
:101988003868fff7edfdc5e7174b01930423009373
:1019980000234ff4007206f1e8011448fff7ccfa6f
:1019a800b8e706f1f40001f0d5fce6e7404601f09f
:1019b800d1fcb3e700a0402014a540204817400000
:1019c8007d2040009016400008a5402018a5402022
:1019d800152a400042a540203ea5402043a54020ae
:1019e80074a3402010a540201ca54020a528400035
:020000040000fa
:020000040040ba
:1019f800f8b59df81850012d01d90020f8bd3e4cce
:101a0800d4f8c44014f4001f74d13b4cd4f8c4403b
:101a1800c4f3044404ebc407ff00384ed6f818c0da
:101a28000ceb0706b0f5006f1bd320f0604040f0c8
:101a380080404cf807008e46402928bf4ff0400ee2
:101a4800082912d90c293ad910293ad914293ad98e
:101a580018293ad920293ad9312934bf0e200f2024
:101a680004e080044cf80700e5e77046000400f441
:101a780070207060022b2cd0012b2fd015f0fd0f99
:101a880031d05cf8073043f000534cf807301c4a5b
:101a980013780133dbb21370726842ea036343f4cc
:101aa80000037360012000fa04f4134bc3f8e0400c
:101ab800c3f8d0405a6d42f400725a659ee7092077
:101ac800d4e70a20d2e70b20d0e70c20cee70d2080
:101ad800cce7736843f440137360cfe7736843f44b
:101ae80000137360cae71146724606f1080001f058
:101af80079ffcce7002081e700400340f0a34020b5
:041b08003da5402097
:020000040000fa
:020000040040ba
:101b0c002de9f047384b1b68002b67d1374b1f680a
:101b1c0001371f60bfb1364b1b68bb4220d9002573
:101b2c00344b1b68db6a03eb83039b00324ad358ac
:101b3c00022b28bf0125314b1b68002b18bf012538
:101b4c002846bde8f0872e4a11682e4b18681060a5
:101b5c0019602d4a13680133136001f0abfddae70d
:101b6c000025dff89c80dff8a890dff88ca021e03e
:101b7c001f4b4ff0ff321a60d2e71d4a1360cfe7bc
:101b8c0004f1180001f0eafde06ad9f80020012305
:101b9c0083401343c9f8003000eb800031460aeb58
:101bac00800001f007ff134b1b68e26adb6a9a4264
:101bbc0028bf0125d8f800301b68002bd8d0d8f8e6
:101bcc000030db68dc6863689f42d6d3261d304644
:101bdc0001f0c4fda36a002bd2d1d5e70b4a1368e0
:101bec00013313600025abe7e0a4402000a54020a2
:101bfc00f0a44020cca4402040a2402004a54020ca
:101c0c00d0a44020d4a44020f4a44020f8a4402028
:041c1c00e8a44020d8
:020000040000fa
:020000040040ba
:101c2000f8b504464ff4a072002101f039ff384b9b
:101c300001229a611a46936913f0010ffbd0344eca
:101c4000b36943f00203b361324ad46024f0030164
:101c500089b231480143c6f8a01004f1480313616a
:101c600023f003039bb20343c6f8b03004f19003a2
:101c7000536123f003039bb2c6f8ac3004f1d803e0
:101c8000936123f003039bb243f08073c6f8c03026
:101c900004f59073d36123f003039bb243f48033c4
:101ca000c6f8f03004f5947313621c4d03cdc4f8ec
:101cb0002801c4f82c1123f003039bb243f4003332
:101cc000c6f8843004f598755562154f0fcfc4f8e7
:101cd0003001c4f83411c4f83821c4f83c3125f07f
:101ce0000305adb245f40035c6f888500d49d1f86a
:101cf00014210d4b234092b21343c1f814314ff419
:101d00004073b3613246936913f0010ffbd1f8bd04
:101d100000400340f0a3402000000180283b400029
:0c1d2000703a4000008008400000ffff07
:020000040000fa
:020000040040ba
:101d2c002de9f04101f078fd2d4b1a68013a1a604b
:101d3c001b68002b4dd12b4b1b680bb9002449e0c1
:101d4c000024294e294fdff8b880336803b3f368b9
:101d5c00dc6804f1180001f001fd251d284601f096
:101d6c00fdfce06a3a680123834013433b6000ebbf
:101d7c008000294608eb800001f01cfe1c4b1b6800
:101d8c00e26adb6a9a42e0d31a4b01221a60dce762
:101d9c000cb101f08ffc184b1c686cb1154e012571
:101dac0001e0013c05d0fff7abfe0028f9d035600f
:101dbc00f7e7114b00221a600e4b1c6854b10f4b05
:101dcc004ff080521a60bff34f8fbff36f8f012417
:101ddc0000e0002401f024fe2046bde8f08100bfa5
:101dec00e0a44020d8a440207ca44020e8a44020bb
:101dfc00cca4402004a54020f8a4402004ed00e031
:041e0c0040a2402090
:020000040000fa
:020000040040ba
:101e1000f0b59df81440012c3ad065b2d5b1022c32
:101e200055d12c4c646814f0010f18bf00204fd11d
:101e300044f00104274d6c60274ca062e2622163ec
:101e40006363069ba363254a536d43f400235365e4
:101e500001203de0dff884c0dcf8a450c5f305257f
:101e60001d4cae007719bf0004eb070ee051cef811
:101e70000420cef80810cef80c30069bcef81030b7
:101e8000dcf8543043f00103ccf8543001201fe05b
:101e9000124fd7f8b450c5f305250f4c05f1010cce
:101ea0004fea8c0606eb0c0e44f82e0004eb8e066f
:101eb0007260aa00501904eb8000c1610362069ba6
:101ec00043627b6d43f010037b65012000e000203e
:101ed000f0bd00bff0a34020b4a340200040034069
:020000040000fa
:020000040040ba
:101ee000314b0022c3f81421d3f8141141f441619d
:101ef000c3f814112d494ff400134b606ff4001315
:101f00000b604ff0ff334b650b66c1f89030c1f8a2
:101f1000a0300a614b618a63c1f8182101f5007194
:101f200010200867486748606ff0100008604b6534
:101f30000b66c1f89030c1f8a0300a614b618a632a
:101f4000c1f8182101f500710a674ff4a0404867f5
:101f500048606ff4a04008604b650b66c1f8903094
:101f6000c1f8a0300a614b618a63c1f8182101f5fc
:101f700000710b604b650b66c1f89030c1f8a03062
:101f80000a614b618a63c1f8182101f500710b6089
:101f90004b650b66c1f89030c1f8a0300a614b6107
:101fa0008a63c1f81821704700800840000e0e4077
:020000040000fa
:020000040040ba
:101fb00038b5044601f036fc002c37d0251d2846e4
:101fc00001f0d2fb70b9e26a02eb82039b00224966
:101fd000cb583bb921480368012101fa02f223eaf8
:101fe00002020260a36a1bb104f1180001f0bcfbfd
:101ff0001b4a1368013313601a4b1b68a34218d0a5
:10200000194a1368013b1360206b01f0a8fd2046bc
:1020100001f0a5fd01f054fb01f008fd134b1b6816
:102020001bb1104b1b68a3420cd038bd0d4b1c6874
:10203000c4e729460e4801f0c3fc0e4a1368013379
:102040001360e9e70c4b4ff080521a60bff34f8fdb
:10205000bff36f8fe9e700bf40a24020e8a4402013
:10206000e4a44020cca44020d8a44020fca44020dc
:0c207000a4a44020dca4402004ed00e00b
:020000040000fa
:020000040040ba
:10207c002de9f04383b02a4e2a4d05f17c0928e066
:10208c0005f1280001f064f9274b1c78bcb1274fef
:10209c0005f14408244b1b781b1b98e803000090a7
:1020ac008df80410fa5c05f14c01684601f03afc1d
:1020bc00684601f0b9fa013c14f0ff0fead105f1c2
:1020cc00540001f045f901f01dfd40f2dc5001f027
:1020dc00cbf901f01ff930703378013b032bf4d8a6
:1020ec0001a252f823f000bf8d20400005214000d2
:1020fc00132140002121400005f1580001f028f97e
:10210c0001f000fde1e705f1600001f021f901f0bb
:10211c00f9fcdae7484601f01bf901f0f3fcd4e7cf
:10212c0041a540209016400043a5402074a34020b8
:020000040000fa
:020000040040ba
:10213c00002849d038b50446c26a24490968c96ade
:10214c008a4238d28169002905db20490968c96aad
:10215c00c1f10501816102eb82021d4901eb820292
:10216c006169914205d0194a1268d26ae262012073
:10217c0029e0251d284601f0f1fa38b915490b68fc
:10218c00e06a0122824023ea02030b600f4b1b68ba
:10219c00d86ae0620f4a1168012404fa00f30b4379
:1021ac00136000eb80002946094b03eb800001f023
:1021bc0001fc204607e0054a1268406cd36a98423d
:1021cc002cbf0020012038bd00207047cca440203b
:0821dc0040a24020e8a44020cd
:020000040000fa
:020000040040ba
:1021e4002de9f041d2e900230c4686b007465feaa8
:1021f400d37820684968a5680590e66841d05242c2
:1022040063eb4303002908db20f002000590b8f1da
:10221400000f02d1059948072ad5691e05a8029026
:102224000a20cde90010204600f02efcb8f1000f82
:1022340002d1059b59071fd5b8f1000f00f1ff30fb
:1022440014bf2d232b2333542269059b0093013a99
:102254002b46121a3118384600f0a5fa7b68db05c4
:1022640003d563689842b8bf184606b0bde8f0814c
:102274000807d2d42946d1e71a07e5d50138202327
:08228400e1e70029c0dac5e71b
:020000040000fa
:020000040040ba
:10228c0038b5244b01229a611a46936913f0010f59
:10229c00fbd0204b9a6942f002029a6141f266022d
:1022ac00da601d4ada6140f27772c3f8bc204ff055
:1022bc00ff32c3f89820c3f89c200722c3f8c8202b
:1022cc002822c3f880206ff06042c3f890200122ce
:1022dc001a624ff440729a611a46936913f0010f17
:1022ec00fbd10c4b00249c650122da654ff0007287
:1022fc005a650a4d2c606c60ac603c222146084843
:10230c0001f0c8fbec602c616c61ac61ec612c627f
:10231c006c6238bd00400340040d0408f0a340205b
:04232c00b4a34020f6
:020000040000fa
:020000040040ba
:102330002de9f041002945d08c46234b1e6900242d
:10234000224d1a46dff888e00fe030f81470d5f817
:10235000048018f4003f14bf2ef811700ef80170bd
:102360009360631c013463452ad26b6813f4003315
:1023700010d0d76891684b1cb34228bf00239f42fe
:10238000e3d101f081fa10b1104b02229a6020468d
:10239000bde8f081d2f80c809768791cb14228bf63
:1023a00019468845edd0035dd5f8048018f4003f48
:1023b00014bf2ef817300ef807309160631cd1e778
:1023c0001c46dee70c46dce7f4a240200080024019
:0423d000c0a1402048
:020000040000fa
:020000040040ba
:1023d400882930b534d012dc81293fd003dc802930
:1023e4003cd0002030bd82290ed08429f9d11c684c
:1023f40054f8041b1c60f2b10ab2d3171de0a029e3
:1024040027d00cdc9029ecd11968073121f00701a1
:10241400f1e802451960c0e900450120e2e7c0295e
:1024240001d0f029ddd11a68111d19601368036009
:1024340000234360f1e78ab20023c0e90023ece7fc
:102444001c6854f8041b1c600ab14ab2d5e7cab22e
:10245400f2e71a68111d19601268cee719680c1d9d
:102464001c600ab10a68c8e70b68c0e90032d4e707
:020000040000fa
:020000040040ba
:1024740070b504460e461c4b1d681c4b186804308e
:1024840001f070f948b9194b1a6819490b68d06af8
:102494000122824023ea02030b60b4f1ff3f00d122
:1024a4006eb92c44114b1b685c60a5420ed9114bcc
:1024b40018680e4b1968043100f0c0ff70bd0b4b57
:1024c400196804310c4801f079faf7e70b4b1868e6
:1024d400064b1968043100f0b1ff094b1b68a34295
:1024e400ecd9074b1c60e9e700a54020cca44020b0
:1024f400e8a44020d4a4402090a44020d0a44020ac
:04250400f0a44020df
:020000040000fa
:020000040040ba
:102508001e4b1b681bb11e4b01221a60704710b589
:102518001b4b00221a601b4b1a681b6812681b6b46
:102528009a421dd9184b1b68b3fa83f3dbb2c3f187
:102538001f03164a9900c81802eb800044686468b3
:102548004460194402460832944210d003eb8303d6
:102558000e4a02eb83035b68da680a4b1a6010bd07
:10256800084b18681968343101f010fadae7606826
:102578000a46064901eb82025060e7e7e0a44020e2
:1025880004a54020cca44020e8a4402040a240203c
:020000040000fa
:020000040040ba
:10259800204b214a9a629a6e12f0020ffbd01d4a14
:1025a800136b23f07003136313469a6e12f0080f2f
:1025b800fbd0184a136b23f4407343f480731363fe
:1025c80013469a6e12f0080ffbd0124a136b23f0d1
:1025d800030343f00203136313469a6e12f0080fc5
:1025e800fbd00c4b4ff440525a600421196524214a
:1025f80059651a601a46936e03f44053b3f5405f69
:10260800f9d1044b4ff457321a612022c3f8002144
:0c261800704700bf00060e40013f182074
:020000040000fa
:020000040040ba
:102624001e4b1f4a9342f0b438bf002103d203f873
:10263400011b9342fbd11b4ad2e9000150ea01037a
:102644004ff0000610d09468034602f10c076cb9f1
:1026540021b1014403f8016b9942fbd13a46d2e916
:10266400000150ea0103eed1f0bc704759b101f109
:102674000c030c38801a1a443b461c1813f8015bef
:1026840025709342f9d111f0030318bf012303eb22
:10269400910107eb81073a46e1e700bf00004020c3
:0826a4000000402090014000fd
:020000040000fa
:020000040040ba
:1026ac00002838d038b50446426c914238bf1146e8
:1026bc00c26a8a4202d0806c012800d038bde16227
:1026cc00a069002802dbc1f10501a16102eb8202c5
:1026dc00114901eb820261699142efd1251d284617
:1026ec0001f03cf838b90d490b68e06a01228240d0
:1026fc0023ea02030b60e06a084a11680123834055
:10270c000b43136000eb80002946034b03eb800066
:10271c0001f050f9d2e7704740a24020e8a44020d5
:020000040000fa
:020000040040ba
:10272c0070b5054601f078f895f8454064b2002c78
:10273c0011dd6b6a7bb105f1240606e001f0dcf9d2
:10274c00013c64b23cb16b6a2bb1304600f020f90d
:10275c000028f5d0f2e7ff2385f8453001f060f949
:10276c0001f05af895f8444064b2002c11dd2b6945
:10277c007bb105f1100606e001f0bef9013c64b234
:10278c003cb12b692bb1304600f002f90028f5d092
:0e279c00f2e7ff2385f8443001f042f970bdea
:020000040000fa
:020000040040ba
:1027aa002de9ff471d460c9b13f001080746894691
:1027ba00144624d1aa4222da2e1b102e32464ff09a
:1027ca00200128bf10226846b24601f064f90f2e94
:1027da001edc4fea1a136ff00f0202fb03a26946ce
:1027ea00384600f0cfffb8f1000f04d1224649461f
:1027fa00384600f0c7ff284604b0bde8f0872246f5
:10280a004946384600f0beffac42d5db2546f2e722
:0e281a0010226946384600f0b5ff103ed7e7a1
:020000040000fa
:020000040040ba
:10282800002835d038b50446826c013a8264c06a03
:10283800616c884200d00ab1002038bd251d2846a9
:1028480000f08eff70b9e26a02eb82039b00114927
:10285800cb583bb910480368012101fa02f223ea78
:1028680002020260606ce062c0f10503a3610a4adb
:102878001168012404fa00f30b43136000eb800095
:102888002946044b03eb800001f096f82046d4e774
:0c2898000020704740a24020e8a440202f
:020000040000fa
:020000040040ba
:1028a40000b583b04ff0ff31174b1868fef7aefd4b
:1028b400164952230b706f234b7076238b7065235c
:1028c400cb7072230b7100230093082240f26940fd
:1028d40000f09cfca0b100231a4619460a4800687f
:1028e400fef740fe0a4800f037fd0a4b186820b195
:1028f400fff75cfb074b00221a6003b05df804fb92
:10290400054800f029fde6e708a5402034a340204f
:0c291400a81640001ca5402090164000b2
:020000040000fa
:020000040040ba
:10292000842910b523d00cdc812903d0822913d04f
:1029300080290bd119680c1d1c600b6803601a609c
:1029400013e0902921d003dc882917d0002010bd86
:10295000a029efd0c029ece719680c1d1c600b689a
:102960000360d1171046c3e900010120efe71968a1
:102970000c1d1c600b6803601a80f6e719680c1dbb
:102980001c600b6803601a70efe719680c1d1c606f
:0c29900009680160d317c1e90023e6e7e5
:020000040000fa
:020000040040ba
:10299c0038b5c368dc6804f11805284600f0defe83
:1029ac00134b1b68e3b9251d284600f0d7fee06adf
:1029bc00104a1168012383400b43136000eb800025
:1029cc0029460d4b03eb800000f0f4ff0b4b1b680a
:1029dc00e26adb6a9a4208d90120094b186005e0cb
:1029ec002946084800f0e6fff0e7002038bd00bf9c
:1029fc00e0a44020e8a4402040a24020cca44020e9
:082a0c0004a540207ca4402039
:020000040000fa
:020000040040ba
:102a140000b583b04ff0ff31164b1868fef7f6fc93
:102a2400154954230b7049224a708b704f23cb7085
:102a3400002300930223042240f25a4000f0e6fbf4
:102a4400a0b100231a4619460a480068fef78afd19
:102a54000a4800f081fc0a4b186820b1fff7a6fa77
:102a6400074b00221a6003b05df804fb054800f030
:102a740073fce6e708a540200ca54020981640000a
:082a840018a540209016400047
:020000040000fa
:020000040040ba
:102a8c002de9f84f04460c9f6668d4f80cb0246905
:102a9c0010463a68013c002502f0020a0b9a0bf82a
:102aac000450002e1946b8bf0126012390464fea68
:102abc00e279002c03dcd3b12046bde8f88f50ea54
:102acc00010209d1721b002a06dc0a9a521b002a49
:102adc00f1ddbaf1000feed042464b4600f0bcfde2
:102aec00013c134630320bf804200135e1e73b681a
:082afc0023f010033b60dfe74b
:020000040000fa
:020000040040ba
:102b040070b504461646856b026c5ab903681bb14e
:102b140000200135a56370bd8068fff783fe0023a4
:102b2400a360f6e76eb9406800f05eff6368226c4c
:102b340013446360a268934219d3236863603046e8
:102b4400e7e7c06800f050ff226c5242e368134488
:102b5400e36021688b4202d2a3681a44e2600db19b
:102b6400022e01d00020d4e7013d0020d1e73046f9
:022b7400cfe7a9
:020000040000fa
:020000040040ba
:102b7600f0b50c4649682368a768e56887b0002960
:102b86000593a4bf23f00203059305ab0293082324
:102b9600cde900730646d2e900232046fff773ff0e
:102ba600059bd90642bf00f1ff3030232b54059b0d
:102bb6001a0742bf00f1ff3020232b542269059be0
:102bc6000093013a3b46121a29183046fff7eafdf0
:102bd6007368db0503d563689842b8bf184607b02b
:022be600f0bd40
:020000040000fa
:020000040040ba
:102be80038b504460d4600f019fe2268216ce36be7
:102bf80003fb01f3d018a0600020a06362605b1a99
:102c08001344e360ff2384f8443084f84530a5b9c1
:102c180023691bb900f006ff012038bd04f110003c
:102c2800fff7b8fe0028f5d0084b4ff080521a6025
:102c3800bff34f8fbff36f8fece704f1100000f084
:102c4800b0fe04f1240000f0acfee3e704ed00e080
:020000040000fa
:020000040040ba
:102c580080b5164c164f174edff860802368bbb15d
:102c680000f0dcfdfb68dd68281d00f079fd3368a5
:102c7800013b33602368013b236000f0d3fe286bdf
:102c880000f069ff284600f066ff2368002be7d1b3
:102c9800094b1b68012be1d94ff08053c8f800306d
:102ca800bff34f8fbff36f8fd8e700bfdca440207e
:102cb800a4a44020d8a4402040a2402004ed00e075
:020000040000fa
:020000040040ba
:102cc80000b583b0124b0193002300938022114971
:102cd8001148fef731f9012802d003b05df804fb72
:102ce8004ff0200372b683f31188bff36f8fbff3e1
:102cf8004f8f62b6094b4ff0ff321a60084b012222
:102d08001a60084b00221a6000f05afae5e700bf83
:102d1800eca44020383b4000592c4000f0a440204f
:082d2800fca4402000a540209e
:020000040000fa
:020000040040ba
:102d3000eff30980bff36f8f154b1a681ef0100f69
:102d400008bf20ed108a20e9f04f10602de909003e
:102d50004ff0200072b680f31188bff34f8fbff39e
:102d60006f8f62b6fff7d0fb4ff0000080f3118841
:102d700009bc19680868b0e8f04f1ef0100f08bfd2
:102d8000b0ec108a80f30988bff36f8f704700bfe3
:042d9000cca440206f
:020000040000fa
:020000040040ba
:102d940038b5eff311844ff0200372b683f3118832
:102da400bff36f8fbff34f8f62b6826bc36b9342d7
:102db4001ad990f845305bb201328263b3f1ff3f18
:102dc40005d001335bb280f8453001200de0436a41
:102dd4000bb9012009e00d462430fff7ddfd3db1bc
:102de40030b10120286000e0002084f3118838bd50
:042df4000120fae7d9
:020000040000fa
:020000040040ba
:102df800f8b50021134800f07bfe012000f072feb8
:102e08000021012000f09efd03220021012000f096
:102e1800ddfb06460c4b18601d464ff0ff340b4f88
:102e280076b121462868fef7effa0128f9d100f0bb
:102e3800f5fc0121384600f0c3f800f0f3fdefe798
:102e4800f8bd00bfdd34400028a5402045a540203e
:020000040000fa
:020000040040ba
:102e580014494ff486730b6050230b604ff40c63d6
:102e68004b6051230b62104b00221a629a62da629d
:102e780083f8342083f83c209a6383f83d201a6055
:102e88009a60da601a751a779a614b6813f4003ff2
:102e9800054b14bf402280221a631a61014be122bc
:0c2ea8009a60704700800240f4a24020b5
:020000040000fa
:020000040040ba
:102eb40038b5044610f0070f02d020f00704083498
:102ec40000f0dcfd0e4b1b688bb10e4b1b681c44e1
:102ed400a34212d249f6f77294420ed8084a1568f2
:102ee4001d44084b1c60fef71fff284638bd044aea
:102ef400054b23f007031360e7e70025f3e700bf62
:0c2f0400c4a44020c8a4402008004020c5
:020000040000fa
:020000040040ba
:102f100070b504460d4600f085fc124b1a682b680c
:102f2000b3f1ff3f16d061680f48006826688642fb
:102f300001d0914213d9501a834203d800232b6049
:102f4000012408e09b1a0b442b60204600f016fd7c
:102f5000002400e0002400f069fd204670bd01243b
:0c2f6000f9e700bf00a54020f4a44020c9
:020000040000fa
:020000040040ba
:102f6c000e4a38b5002313600d4a0e4c13600e4afe
:102f7c000e4d13600e4a13600e4a13600e4a5362d4
:102f8c0013610123936000f0e5fd00f0e3fdac421a
:102f9c0000d338bd54f8043b9847f8e734a54020db
:102fac00b0a2402088014000aca240208801400023
:0c2fbc00a4a24020a8a24020b4a2402003
:020000040000fa
:020000040040ba
:102fc800f0b4124ad36a956a0022114fdff844c060
:102fd8000e4e08e01cf8034084540133346b9c42c5
:102fe80098bf00230132ab420bd0914209d97c68cb
:102ff80014f4003feed03cf8134020f8124001339f
:10300800ece70249cb621046f0bc7047f4a24020be
:083018000080024040a14020ad
:020000040000fa
:020000040040ba
:103020002de9ff41134dd1f80080af88adf80c7049
:1030300006462868029002aca8798df80e00002a96
:1030400018bf1446d1e901571a461bb9204600f0b3
:103050002ffd0246002d02dbaa4228bf2a46cdf8ea
:1030600000803b4621463046fff79ffb04b0bde899
:08307000f08100bf483b400065
:020000040000fa
:020000040040ba
:10307800f0b50c4649682368a668e76887b0002958
:103088000593a4bf23f00203059305ab02930a231b
:10309800cde900630546d2e900232046fff7f2fc9c
:1030a8002269059b0093013a3346121a39182846bb
:1030b800fff777fb6b68db0503d563689842b8bff9
:0630c800184607b0f0bd40
:020000040000fa
:020000040040ba
:0230ce00fee71b
:020000040000fa
:020000040040ba
:1030d0002de9f04182b09df82060104c2478e4b2d4
:1030e000052c03d0002002b0bde8f08198461746b9
:1030f0000d46044632460021094800f0b7fb074b55
:1031000002221a7000232b60099b0193009643460c
:103110002a4639462046fef77bfee4e744a54020d8
:04312000a93440008e
:020000040000fa
:020000040040ba
:1031240000b583b00d4b0193009000234ff400725f
:103134000b490c48fdf702ff0b4b00221a700120cb
:1031440000f080fb094b186010b103b05df804fb7c
:1031540021210748fff7eaf8f7e700bf2ca5402034
:1031640010354000f92d40003ca5402024a5402006
:043174001c354000c6
:020000040000fa
:020000040040ba
:1031780030b589b015464ff0ff32019202f20312c2
:10318800029200b96846cde9030151b14c1e0029ed
:10319800059408da094b4f221a604ff0ff3009b046
:1031a80030bd0c46f3e700220270cde906001a464e
:1031b800294601a800f0aafbf1e700bf38a5402086
:020000040000fa
:020000040040ba
:1031c80010b50e4b1a6842f460021a601a6842f091
:1031d80060421a6000f0b0fa0024094b1c6000f04d
:1031e80017fc084a136843f04043136000f090fa54
:1031f800fff786f900f0ecfa204610bd20ed00e05c
:08320800c0a4402034ef00e0f7
:020000040000fa
:020000040040ba
:10321000f0b583b00e4c2478e4b2052c02d0002027
:1032200003b0f0bd1f4616460d460446012109486d
:1032300000f00efc064b02221a709df8203000931d
:103240003b462a4631462046fef7d6fbe8e700bf5c
:0832500044a54020a934400010
:020000040000fa
:020000040040ba
:1032580010b50278202a034600f10100f9d0a2f146
:1032680009010429f5d92b2a07d02d2a11d10121ca
:103278000133013b00200a2403e00021f8e7604302
:10328800801a13f8012f303a092af8d901b94042b7
:0632980010bd0021ede76e
:020000040000fa
:020000040040ba
:02329e00fee749
:020000040000fa
:020000040040ba
:1032a00010b5054c237833b9044b13b10448aff380
:1032b00000800123237010bd38a4402000000000ce
:1032c0000000000008b5034b1bb103490348aff3ee
:1032d000008008bd000000003ca440200000000069
:020000040000fa
:020000040040ba
:1032e0000d4bd96821f4e0610904090c0b4a0a432b
:1032f000da60bff35f8f62b6e02283f82320a3f584
:10330000406383f80e234ff48041196083f825232e
:1033100020225a60704700bf00ed00e00000fa056f
:020000040000fa
:020000040040ba
:103320000c4b1878c0b2032803d0042809d0002021
:103330007047094b1b7853b1012b14bf00200220aa
:103340007047054b1b78002b08bf032070470120f6
:0c335000704700bf44a5402020a540208d
:020000040000fa
:020000040040ba
:10335c0038b505460b4c4ff0ff312068fef752f89c
:10336c00284600f09ffb01462846fef7dbff0221b2
:10337c000548fef7d7ff00231a4619462068fef7ca
:0c338c00edf838bd24a54020403540007d
:020000040000fa
:020000040040ba
:103398000c4b586c20f4605020f018004004400c8e
:1033a8009b6913f0010f0cd0064b9a6942f0020298
:1033b8009a614ff440729a611a46936913f0010fab
:0833c800fbd1704700400340f7
:020000040000fa
:020000040040ba
:1033d000094b00225a60094ada60094a1a61094910
:1033e0004a6a42f480324a6205225a60bff34f8f24
:1033f000bff36f8f704700bf90ed00e010f04520e5
:083400001700081300ed00e0c5
:020000040000fa
:020000040040ba
:1034080030b50c4a002312f8134024b902eb4303e9
:103418005b78184630bd01680d78a54209bf02ebfc
:10342800430301335b78013114bfdbb201600a2b1f
:08343800e9d9eee7f838400085
:020000040000fa
:020000040040ba
:1034400030b40d68b5f1ff3f02d000f1080202e090
:10345000026904e01a4653681c68ac42fad9536802
:103460004b6099608a6051600861036801330360b2
:0434700030bc7047b5
:020000040000fa
:020000040040ba
:1034740010b540b90a4b4ff080521a60bff34f8f1a
:10348400bff36f8f10bd044600f0f8fa0021204608
:10349400fef7eefffef748fc0028f3d1eae700bf91
:0434a40004ed00e053
:020000040000fa
:020000040040ba
:1034a80010b50446094b1860fff772ff10f00700cb
:1034b80005d0072803d0064b04221a7010bd14f05b
:1034c800fe0ffbd1024b03221a70f7e720a540201c
:0434d80044a54020a7
:020000040000fa
:020000040040ba
:1034dc0000b1704700b583b001a9084b1868fff71d
:1034ec0053fc019b3bb1064b4ff080521a60bff36b
:1034fc004f8fbff36f8f03b05df804fb28a54020fe
:04350c0004ed00e0ea
:020000040000fa
:020000040040ba
:1035100054415245415f7561727431004e6f2073a2
:1035200065207075646f20637265617220656c2020
:10353000626c6f7175656f206d7574657800000041
:043540000d0a000070
:020000040000fa
:020000040040ba
:1035440008b500f07bfafff725f8fef7c7fc4ff447
:103554000043064a5360b03a5360fef795fefff706
:1035640079fc00f04df8fff7b9fe08bd00190e40d4
:020000040000fa
:020000040040ba
:1035740000b583b0074b01930123009300234ff45c
:10358400806205490548fdf7d9fcfff79bfb03b0b2
:103594005df804fbbca4402064394000313b40008a
:020000040000fa
:020000040040ba
:1035a40008b54ff0200372b683f31188bff36f8f11
:1035b400bff34f8f62b6fef7a7fa18b1034b4ff073
:1035c40080521a60002383f3118808bd04ed00e0e3
:020000040000fa
:020000040040ba
:1035d40070b506460d4601fb00f04830fff768fc65
:1035e400044648b155b100f148032360e6632564fd
:1035f40001212046fff7f6fa204670bd0346f4e7a2
:020000040000fa
:020000040040ba
:1036040008b5084b00221a700220fff789fd01203b
:1036140000f018f9044b186000b108bd0348fff727
:103624009bfefae740a5402008a54020241740004f
:020000040000fa
:020000040040ba
:1036340038b50546094c4ff0ff312068fdf7e6fe2a
:10364400284600f033fa01462846fef76ffe0023b1
:103654001a4619462068fdf785ff38bd24a5402089
:020000040000fa
:020000040040ba
:1036640053b94ab9002908bf00281cbf4ff0ff31e5
:103674004ff0ff3000f06ebaadf1080c6de904cee6
:10368400fdf7f4faddf804e0dde9022304b0704745
:020000040000fa
:020000040040ba
:103694004ff0807340f8043c21f0010140f8081c0d
:1036a400054b40f80c3c40f8202c6ff0020340f826
:0c36b400243c4438704700bfd937400068
:020000040000fa
:020000040040ba
:1036c000084b1b681b6823b9074b4ff0ff321a6089
:1036d0007047044b1b68db68db685a68024b1a6052
:0c36e000704700bfd0a44020f0a44020a0
:020000040000fa
:020000040040ba
:1036ec00802910db812901dd83290cd11368073374
:1036fc0023f0070303f108011160d3e90023c0e9ab
:0a370c0000230120704700207047e1
:020000040000fa
:020000040040ba
:02371600fee7cc
:020000040000fa
:020000040040ba
:1037180008480068006880f308884ff0000080f3cc
:10372800148862b661b6bff34f8fbff36f8f00dfa7
:0837380000bf000008ed00e0f5
:020000040000fa
:020000040040ba
:10374000054b00221a6005490a60054a05491160c7
:1037500007221a60704700bf10e000e018e000e0a8
:0837600014e000e0df93040017
:020000040000fa
:020000040040ba
:103768000369416882688a60416851605a68824288
:1037780006d0002202611a68013a1a601868704778
:0637880082685a60f5e7bb
:020000040000fa
:020000040040ba
:10378e0038b504699442054628bf1446224640695e
:10379e0000f025f96a6913196b612b691b1b2b61ec
:0637ae000023135538bd95
:020000040000fa
:020000040040ba
:1037b40010b485b00446064b0fcb0df1100c0ce988
:1037c4000f00644414f8100c05b05df8044b704706
:0437d400603a400017
:020000040000fa
:020000040040ba
:1037d80082b0002301934ff0200372b683f311885f
:1037e800bff36f8fbff34f8f62b6019b002bfcd0e6
:0437f80002b0704764
:020000040000fa
:020000040040ba
:0437fc0000207047f2
:020000040000fa
:020000040040ba
:10380000074b19680868b0e8f04f80f30988bff3e8
:103810006f8f4ff0000080f311887047aff3008086
:04382000cca44020d4
:020000040000fa
:020000040040ba
:103824004ff0200372b683f31188bff36f8fbff399
:103834004f8f62b6024a136801331360704700bfaa
:04384400c0a44020bc
:020000040000fa
:020000040040ba
:1038480010b5024600210120fff7c0fe044638b13a
:10385800002181600160c1600b460a46fdf780fec9
:04386800204610bd29
:020000040000fa
:020000040040ba
:10386c0010b428b1044b43f8320003ebc203596087
:0c387c005df8044b704700bf18a440200a
:020000040000fa
:020000040040ba
:10388800054bd8689b68984201d8181a7047024ab5
:0c38980012691344181a7047f4a2402073
:020000040000fa
:020000040040ba
:1038a400054bd86a9b6a984201d8181a7047024a95
:0c38b400126b1344181a7047f4a2402055
:020000040000fa
:020000040040ba
:1038c00010b50c46044b19681831fff7b9fd0121fa
:0c38d0002046fef7cffd10bdcca4402028
:020000040000fa
:020000040040ba
:1038dc00054b1b6823b1044b1a68936c013393643a
:0c38ec00014b1868704700bfcca44020be
:020000040000fa
:020000040040ba
:1038f80068076c094c836a9074a07ac00080688855
:0c39080000846c820081286e696c29002c
:020000040000fa
:020000040040ba
:1039140013b50446019201aafdf72ef8636813f06b
:0c392400100f18bf4ff0ff3002b010bdb4
:020000040000fa
:020000040040ba
:103930000eb403b503aa52f8041b019200f0eef88e
:0a39400002b05df804eb03b070471d
:020000040000fa
:020000040040ba
:02394a00fee796
:020000040000fa
:020000040040ba
:10394c00044b93f8342083f8340083f83c10104671
:08395c00704700bff4a24020f7
:020000040000fa
:020000040040ba
:1039640054415245415f5052494e434950414c5f86
:083974005461736b730000bf86
:020000040000fa
:020000040040ba
:10397c00034b1b680360034b1b684360704700bf1d
:08398c00f4a4402000a5402036
:020000040000fa
:020000040040ba
:103994004ff0200372b683f31188bff36f8fbff328
:0639a4004f8f62b6fee742
:020000040000fa
:020000040040ba
:1039aa0000f1080343604ff0ff328260c360036195
:0639ba00002303607047ca
:020000040000fa
:020000040040ba
:1039c00043684b609a688a60516099600861036837
:0639d000013303607047a3
:020000040000fa
:020000040040ba
:1039d60010b50446fff723ffa46b00f024f8b4faf1
:0639e60084f0400910bd51
:020000040000fa
:020000040040ba
:1039ec0010b5431e0a44914200d110bd11f8014b91
:0639fc0003f8014ff7e79c
:020000040000fa
:020000040040ba
:023a0200fee7dd
:020000040000fa
:020000040040ba
:103a040010b5034b1c69fff73dff013c201a10bda4
:043a1400f4a24020b8
:020000040000fa
:020000040040ba
:103a1800dff80c00016841f4700101607047000094
:043a280088ed00e045
:020000040000fa
:020000040040ba
:103a2c00034a1368013b13600bb983f31188704789
:043a3c00c0a44020c2
:020000040000fa
:020000040040ba
:103a4000014b024a1a607047000c0e400006000449
:020000040000fa
:020000040040ba
:103a500010b1024b9861d961704700bf18a4402093
:020000040000fa
:020000040040ba
:103a60000001020304050607080c1014182030405a
:020000040000fa
:020000040040ba
:103a7000a50000f000000000960000509600001025
:020000040000fa
:020000040040ba
:103a8000024a136801331360704700bfe0a440206e
:020000040000fa
:020000040040ba
:103a900008b5fff7c7fe014b187808bd45a54020c3
:020000040000fa
:020000040040ba
:103aa00002440346934200d1704703f8011bf9e733
:020000040000fa
:020000040040ba
:103ab00003461a46013311780029fad1101a7047cb
:020000040000fa
:020000040040ba
:0e3ac00008b50020fff73efdfff754fdfce7c0
:020000040000fa
:020000040040ba
:0e3ace00a0f14103192b98bf40f02000704773
:020000040000fa
:020000040040ba
:0e3adc00a0f16103192b98bf00f05f00704746
:020000040000fa
:020000040040ba
:023aea00fee7f5
:020000040000fa
:020000040040ba
:0c3aec0008b1014a90637047f4a240202a
:020000040000fa
:020000040040ba
:0c3af800014b186259627047f4a2402094
:020000040000fa
:020000040040ba
:0c3b0400014b01221a60704704a540200c
:020000040000fa
:020000040040ba
:0c3b1000014b05221a70704744a54020ac
:020000040000fa
:020000040040ba
:0c3b1c0013460a466ff00041fff728bb7b
:020000040000fa
:020000040040ba
:083b28006904690c00005a3c1d
:020000040000fa
:020000040040ba
:083b300008b5fdf7d1fefce72a
:020000040000fa
:020000040040ba
:083b380049444c45000000bfa8
:020000040000fa
:020000040040ba
:083b400008b5fef76df808bda1
:020000040000fa
:020000040040ba
:073b4800286e756c6c29006a
:020000040000fa
:020000040040ba
:063b500000230361704731
:020000040000fa
:020000040040ba
:023b5600fee788
:020000040000fa
:020000040040ba
:043b5800704700bff3
:020000040000fa
:020000040040ba
:023b5c007047b0
:020000040000fa
:020000040040ba
:023b5e007047ae
:020000040000fa
:020000040040ba
:023b60007047ac
:020000040000fa
:02000004d0002a
:0400000002000000fa
:00000001FF
